{
  "abi": [
    {
      "inputs": [],
      "name": "getValue",
      "outputs": [
        {
          "internalType": "uint256",
          "name": "",
          "type": "uint256"
        }
      ],
      "stateMutability": "view",
      "type": "function"
    }
  ],
  "bytecode": "6080604052348015600f57600080fd5b50607880601d6000396000f3fe6080604052348015600f57600080fd5b506004361060285760003560e01c80632096525514602d575b600080fd5b60005460405190815260200160405180910390f3fea264697066735822122089b48c0d5e64c44741af4e89e1b4fb2288deec3810c960d96201d328a9ef135864736f6c63430008140033",
  "bytecodeSha1": "fa4d827df873a160606318bac686e15aa25b79e5",
  "compiler": {
    "evm_version": "istanbul",
    "optimizer": {
      "enabled": true,
      "runs": 200
    },
    "version": "0.8.20+commit.a1b79de6"
  },
  "contractName": "contract1",
  "language": "Solidity",
  "natspec": {
    "kind": "dev",
    "methods": {},
    "version": 1
  },
  "opcodes": "PUSH1 0x80 PUSH1 0x40 MSTORE CALLVALUE DUP1 ISZERO PUSH1 0xF JUMPI PUSH1 0x0 DUP1 REVERT JUMPDEST POP PUSH1 0x4 CALLDATASIZE LT PUSH1 0x28 JUMPI PUSH1 0x0 CALLDATALOAD PUSH1 0xE0 SHR DUP1 PUSH4 0x20965255 EQ PUSH1 0x2D JUMPI JUMPDEST PUSH1 0x0 DUP1 REVERT JUMPDEST PUSH1 0x0 SLOAD PUSH1 0x40 MLOAD SWAP1 DUP2 MSTORE PUSH1 0x20 ADD PUSH1 0x40 MLOAD DUP1 SWAP2 SUB SWAP1 RETURN INVALID LOG2 PUSH5 0x6970667358 0x22 SLT KECCAK256 DUP10 0xB4 DUP13 0xD 0x5E PUSH5 0xC44741AF4E DUP10 0xE1 0xB4 0xFB 0x22 DUP9 0xDE 0xEC CODESIZE LT 0xC9 PUSH1 0xD9 PUSH3 0x1D328 0xA9 0xEF SGT PC PUSH5 0x736F6C6343 STOP ADDMOD EQ STOP CALLER ",
  "sha1": "9a62823bb5b505bb73130a746c9dab56507d9842",
  "source": "// SPDX-License-Identifier: MIT\n\npragma solidity ^0.8.0;\n\ncontract contract1{\n    uint256 private value;\n\n    function getValue() public view returns (uint256)  {\n        return value;\n    }\n}",
  "sourcePath": "contracts/contract1.sol",
  "type": "contract"
}